S00F0000546573744332312E73726563CF
S11300009853002055690000D9690000D96900009F
S113001000000000000000000000000000000000DC
S1130020000000000000000000000000D96900008A
S11300300000000000000000D13000001931000071
S1130040D9690000D9690000D9690000D9690000A4
S1130050D9690000D9690000D9690000D969000094
S1130060D9690000D91E0000F11E0000091F00001C
S1130070211F0000391F0000511F00001D5A0000FD
S1130080D9690000D9690000D9690000D969000064
S1130090D9690000D9690000D9690000D969000054
S11300A0D9690000D9690000D9690000D969000044
S11300B0D9690000D9690000D969000010B5064C5F
S11300C02378002B07D1054B002B02D0044800E015
S11300D000BF0123237010BDE401002000000000D4
S11300E084760000084B10B5002B03D0074908485C
S11300F000E000BF07480368002B00D110BD064B89
S1130100002BFBD09847F9E700000000E80100202D
S113011084760000847600000000000080B582B080
S113012000AF78607B6800221A70C046BD4602B0FA
S113013080BD000080B582B000AF7860044B044AF3
S113014011697A680A431A61C046BD4602B080BD8F
S11301500008004080B584B000AF78600023FB60E5
S11301600BE0FB681A014C4BD31810220021180035
S11301704A4B9847FB680133FB60FB680F2BF0DDAB
S11301807B68474A93423CD1464B1B041B0CA0227C
S1130190D2021A437B6884215A50434B1B041B0C24
S11301A0A02212031A437B6888215A503A4B1B043D
S11301B01B0C802252031A437B68A0215A503B4BEC
S11301C01B041B0C802252031A437B68B0215A5033
S11301D0374B1B041A0C7B68AC215A50354B1B045B
S11301E01B0C8022D2041A437B68C0215A50324B24
S11301F01B041B0C802212031A437B68F0215A5003
S11302003EE07B682D4A93423AD12D4B1B041B0CD4
S1130210802252021A437B6884215A50294B1B04C2
S11302201B0C802252021A437B6888215A50264BA9
S11302301B041B0C802252031A437B68A0215A50D2
S1130240224B1B041B0C802252031A437B68B021EF
S11302505A501F4B1B041A0C7B68AC215A501D4B7F
S11302601B041B0C1C4A1A437B68C0215A501B4BAD
S11302701B041B0C802212031A437B68F0215A5082
S11302807B68BC22002199507B68C82200219950C8
S1130290C046BD4604B080BD00020020376C00009B
S11302A0001C00428004002094040020000300206D
S11302B0000200200004002040040020002000422E
S11302C0A4080020A8080020E4050020E40600207B
S11302D0E4040020E4070020000004046408002073
S11302E080B582B000AF786039607B68864ADA6195
S11302F07B68864ADA603B689B7B002B06D07B6870
S1130300DB68802212041A437B68DA603B685B78FE
S1130310002B05D07B689B6840221A437B689A6057
S11303207B685B693A6892781A437B685A613B68D8
S1130330DB78002B06D07B689B698022D2011A43AC
S11303407B689A613B681B79002B06D07B689B69AC
S1130350802292011A437B689A613B685B79002B87
S113036006D07B689B69802252011A437B689A619C
S11303703B689B7901225340DBB2002B05D07B689C
S11303809B6940221A437B689A613B68DB79002BA6
S113039005D07B689B6910221A437B689A613B688D
S11303A01B7A002B05D07B689B6908221A437B6863
S11303B09A613B685B7A1B041A00F0231B03134009
S11303C001221A437B681A623B685B891B041A008A
S11303D03B681B7B13433A68527B1A437B689A62DF
S11303E03B68DB7B1B021A00FE23DB011A403B68DF
S11303F01B7C19007F230B401A437B689A643B687B
S11304005B7C1B011A0030231A403B689B7C9B00D9
S113041019000C230B401A437B6880215A503B6817
S1130420DB7C002B07D07B6880229B5802221A4376
S11304307B6880215A503B681B7D002B07D07B686A
S113044080229B5801221A437B6880215A503B68C2
S11304509A697B6890215A503B681B7F002B08D017
S11304607B68A0229B58802212061A437B68A02135
S11304705A507B68A0229A583B685B7F1B06190080
S1130480FE23DB050B401A437B68A0215A503B68CE
S11304909B7F002B08D07B68B0229B5880221206D9
S11304A01A437B68B0215A507B68B0229A583B6843
S11304B0DB7F1B061900FE23DB050B401A437B6818
S11304C0B0215A503B6820229B5C002B08D07B68EB
S11304D0C0229B588022D2051A437B68C0215A50FF
S11304E07B68F0229A583B6821215B5C1B0619004B
S11304F0FC239B050B401A437B68F0215A50C046ED
S1130500BD4602B080BDC046030A0506330A050095
S113051080B582B000AF78607B681B680B4A934259
S113052005D180235B001800094B984709E07B68DC
S11305301B68084A934204D180239B001800044B93
S11305409847C046BD4602B080BDC046001C00426C
S1130550350100000020004280B584B000AFF8608F
S1130560B9607A60FB68BA681A60FB681800224BAD
S11305709847224B1800224B98477B681A781F4BE8
S11305801A70BB681F4A934208D11C4B19001A20E9
S11305901D4B98471A201D4B98470BE0BB681C4A1B
S11305A0934207D1154B19001B20174B98471B206A
S11305B0164B9847BB689B6902221A43BB689A6131
S11305C0BB681800134B98477A68BB681100180081
S11305D0114B9847BB680322DA65BB68E02101220E
S11305E052425A50BB68E421012252425A50C0463A
S11305F0BD4604B080BDC046110500000433002090
S11306001D010000001C00425966000099660000AC
S11306100020004255010000E102000080B588B0CE
S113062000AF786039600023FB610323BB610A23B8
S11306307B6103233B617B681B4A934205D11A20EB
S11306401A4B98470300FB6108E07B68184A934201
S113065004D11B20154B98470300FB61154B3968E7
S1130660F8699847030018007A693B69D318DA1CC3
S1130670104B110098470300FB60FB681B040E4AF3
S11306801A40BB695B061A437B691B021B041B0CE3
S11306901A433B697F210B401A437B68DA61C046E9
S11306A0BD4608B080BDC046001C0042496700003A
S11306B0002000421D6A00000000FF0180B582B0E6
S11306C000AF78607B681B687A68126892690121C0
S11306D08A439A61C0467B681B689B690122134068
S11306E0F9D1C046BD4602B080BD80B582B000AF2E
S11306F078607B681B687A681268926901210A43F2
S11307009A61C0467B681B689B6901221340F9D03B
S1130710C046BD4602B080BD80B584B000AFF8606D
S1130720B9607A60FB681B680E4A934207D1BB68C4
S113073019680D4B7A689200D15000230DE0FB68D4
S11307401B680A4A934207D1BB681968084B7A6848
S11307509200D150002300E017231800BD4604B0D6
S113076080BDC046001C00428004002000200042DE
S1130770A408002080B584B000AFF860B9607A6046
S1130780FB681B68164A93420FD1BB681968154B66
S11307907A68D200D150BB685A6812497B68DB0082
S11307A0CB1804331A60002315E0FB681B680E4A5B
S11307B093420FD1BB6819680C4B7A68D200D150B0
S11307C0BB685A6809497B68DB00CB1804331A609C
S11307D0002300E017231800BD4604B080BDC046C6
S11307E0001C00429404002000200042A8080020BD
S11307F080B586B000AFF860B9607A60FB681B68AA
S11308002D4A934226D1BB6819682C4B7A68120191
S1130810D150BB685A6829497B681B01CB18043343
S11308201A6000237B6110E0BA687B69D31808332F
S11308301978224A7B681B01D2187B69D3180833C4
S11308400A1C1A707B6901337B617B69072BEBD926
S113085000232CE0FB681B68194A934226D1BB682D
S11308601968184B7A681201D150BB685A68154947
S11308707B681B01CB1804331A6000237B6110E0F2
S1130880BA687B69D318083319780E4A7B681B0150
S1130890D2187B69D31808330A1C1A707B69013398
S11308A07B617B69072BEBD9002300E01723180039
S11308B0BD4606B080BDC046001C004200040020B6
S11308C000200042E407002080B582B000AF7860C9
S11308D00A00FB1C1A70FB1C1B7801225340DBB27C
S11308E0002B04D07B681B68A4229B5803E07B6820
S11308F01B68B4229B581800BD4602B080BD80B569
S113090084B000AFF8607A600B23FB180A1C1A70DD
S11309100B23FB181B7801225340DBB2002B07D0BA
S1130920FB681B687A683F210A40A8215A5006E0F8
S1130930FB681B687A683F210A40B8215A50C046B8
S1130940BD4604B080BD000080B582B000AF7860C1
S11309507B68034A1A60C046BD4602B080BDC046EB
S1130960FF07008880B582B000AF78607B68802282
S1130970D2051A607B68034A5A60C046BD4602B07D
S113098080BDC046FFFFFF9F80B588B000AF786090
S11309907B681B7A002B42D0444B1B68BB6100234D
S11309A0FB6109E0BB691B68002B09D0BB690833F4
S11309B0BB61FB690133FB61FB69092BF2DD00E0DC
S11309C0C046FB69052B02D101235B426AE00C237C
S11309D0FB181800364B98477B681B68DB00D90866
S11309E00C23FB181A68C900C908520F52070A439E
S11309F01A607B685B68DB00D9080C23FB185A6813
S1130A00C900C908520F52070A435A60294B1B6890
S1130A10FA690C2179181800274B984741E0274BB5
S1130A201B687B610023FB6108E07B691A1D7A6106
S1130A301B68002B06D0FB690133FB61FB69042BA7
S1130A40F3DD00E0C046FB69052B02D101235B42C4
S1130A5028E00823FB181800194B98477B681B688B
S1130A609BB25B055B0D9AB2BB685205520D120432
S1130A7014490B401343BB607B685B689BB25B0506
S1130A805B0D9AB2BB685205520DDB0ADB021343BD
S1130A90BB60084B1B68FA690821791818000A4BD7
S1130AA09847FB691800BD4608B080BD0833002094
S1130AB0650900000C000020750700000C330020BD
S1130AC049090000FFFF00F81907000090B585B040
S1130AD000AF040008001100FB1D221C1A70BB1D8E
S1130AE0021C1A707B1D0A1C1A707B1D1B78002BBC
S1130AF03AD03F4B1B68FB60BB1D1B78042B01D90C
S1130B00012370E0BB1D1B78DB00FA68D3181B6857
S1130B10002B01D1012366E0FB1D1B78002B19D0AB
S1130B20BB1D1B78002B08D1FB681A68D200D208C1
S1130B30C021C9050A431A6054E0BB1D1B78DB00C1
S1130B40FA68D3181A68D200D208802189050A43AA
S1130B501A6047E0BB1D1B78DB00FA68D3181A68DB
S1130B60D200D2081A603DE0224B1B68BB60BB1D5B
S1130B701B78042B01D9012335E0BB1D1B789B0096
S1130B80BA68D3181B68002B01D101232BE0FB1D8D
S1130B901B78002B1DD0BB1D1B78002B0CD1BB1D5B
S1130BA01B789B00BA68D3181A6813490A40C021FD
S1130BB049050A431A6015E0BB1D1B789B00BA68FF
S1130BC0D3181A680C490A40802109050A431A609F
S1130BD008E0BB1D1B789B00BA68D3181A68064945
S1130BE00A401A6000231800BD4605B090BDC046F7
S1130BF0083300200C330020FFFFFFC780B586B008
S1130C0000AF3C4B1B681B6888229B589BB21A00A0
S1130C1080239B0513431A00374B1A60354B1B681E
S1130C201B6884229B589BB21A0080239B051343A4
S1130C301A00324B1A60314B1B683B6100237B6105
S1130C4007E03B691A1D3A6100221A607B6901338F
S1130C507B617B69042BF4DD274B1B683B6100231C
S1130C607B610CE03B691A1D3A6100221A603B6902
S1130C701A1D3A6100221A607B6901337B617B692A
S1130C80092BEFDD3B1D18001D4B98473B1D1A68CF
S1130C901C490A431A603B1D5A68520F52075A6096
S1130CA03B1D1A68D200D2081A60124B1B68391D0A
S1130CB000221800144B98470C23FB181800134B00
S1130CC09847FB68124A1343FB60FB68DB0ADB02AC
S1130CD0FB60FB680F4A1340FB60064B1B680C2249
S1130CE0B918002218000C4B9847C046BD4606B000
S1130CF080BDC0460C000020083300200C330020C7
S1130D0065090000FFFFFF1F750700004909000087
S1130D100000FF07FFFFFFC71907000080B584B07C
S1130D2000AF7860104B1B68002118000F4B9847E8
S1130D300300FB60FB687F2213400AD17B68190023
S1130D4001200B4B9847031E00D1EBE701235B42C4
S1130D5006E0FB681B0A1A003F231340BB60BB6814
S1130D601800BD4604B080BD0C000020C908000076
S1130D709D4D000080B582B000AF7860054B1B68C4
S1130D807A6800211800044B9847C0461800BD46F5
S1130D9002B080BD0C000020FF08000080B584B0C4
S1130DA000AF0200FB1D1A700F23FB1800221A70FB
S1130DB00023BB600F23FB1800221A701DE0FB1DEB
S1130DC01B789AB20F23FB181B7811491B01CB180F
S1130DD008331B889A4209D10F23FB181B780C4A4D
S1130DE01B01D31804331B68BB600BE00F23FB18F3
S1130DF01A780F23FB1801321A700F23FB181B7883
S1130E000A2BDCD9BB681800BD4604B080BDC046BF
S1130E10D071000080B584B000AF0200FB1D1A70D1
S1130E200F23FB1800221A700023BB600F23FB184A
S1130E3000221A701DE0FB1D1B789AB20F23FB18C9
S1130E401B7811491B01CB1808331B889A4209D11E
S1130E500F23FB181B780C4A1B01D3180C331B6897
S1130E60BB600BE00F23FB181A780F23FB18013229
S1130E701A700F23FB181B780A2BDCD9BB681800E7
S1130E80BD4604B080BDC046D071000080B584B0BA
S1130E9000AF78600E23FB1800221A8013E0104B79
S1130EA0984702007B681B780133D3181B781A001B
S1130EB00423134004D10E23FB1801221A8006E0F8
S1130EC07B6801337B607B681B78002BE7D10E23A2
S1130ED0FB1800229B5E1800BD4604B080BDC046CE
S1130EE0E56B000080B582B000AF786039607B6844
S1130EF01800094B9847031E09D17B681800074B5B
S1130F00984703009AB23B681A80002300E001234B
S1130F101800BD4602B080BD8D0E0000896B000034
S1130F2080B584B000AF78600F23FB180B221A70D1
S1130F300F23FB1800221A701DE00F23FB181A78E8
S1130F40124B1201D2587B6811001800104B9847BD
S1130F50031E09D10F23FB181B780C4A1B01D3185D
S1130F6008331B88DBB20CE00F23FB181A780F231D
S1130F70FB1801321A700F23FB181B780A2BDCD9DB
S1130F8000231800BD4604B080BDC046D0710000E7
S1130F90476C000090B589B000AFF860B9607A6022
S1130FA0FB68BB611623FB1800221A803D4B1A68AC
S1130FB0FB68110018003C4B98470300BB611F23DA
S1130FC0FC18BB691800394B9847030023701F2392
S1130FD0FB181B78002B1DD01F23FB181B78042B38
S1130FE018D01F23FB181B78082B13D01F23FB18C2
S1130FF01B78092B0ED01F23FB181B780A2B09D052
S11310001F23FB181B780B2B04D01F23FB181B7802
S1131010062B04D11F23FB181B781BB23EE01F23B1
S1131020FB181B78072B32D89A00214BD3181B6866
S11310309F461C4B1B68190000201B4B984703005C
S1131040BB611623FC18BA68BB6911001800194B60
S11310509847030023801623FB1800229B5E002B75
S113106017D01F23FB1800221A7012E00D4B1B68C7
S1131070190000200C4B98470300BB61BB691800A2
S11310800A4B984703009AB2BB681A8002E0C04634
S113109000E0C0461F23FB181B781BB21800BD4696
S11310A009B090BD00000020796C0000210F000001
S11310B080720000E50E000080B582B000AF02002F
S11310C0FB1D1A70064BFA1D127811001F220A40EC
S11310D0012191400A001A60C046BD4602B080BD9D
S11310E000E100E080B584B000AF78607B681B68E5
S11310F0FB60FB68DB695A1E9341DBB21800BD46F6
S113110004B080BD80B582B000AF7860C0467B6813
S11311101800044B9847031EF9D1C046BD4602B0DF
S113112080BDC046E510000080B582B000AF786095
S11311307B688022D2051A607B6800225A607B6833
S1131140FF221A817B6800229A727B680022DA727D
S11311507B68962292019A627B682C220121995421
S11311607B682D22012199547B682E2200219954F9
S11311707B682F22002199547B6800221A637B68C4
S113118088225203DA607B683422002199547B68F8
S11311903522002199547B6800229A637B680022DF
S11311A0DA637B6800221A647B6800225A647B68D5
S11311B000225A617B6800221A827B680022DA7658
S11311C07B680022DA617B6800221A847B68002233
S11311D05A847B6800221A767B6824220021995461
S11311E07B6800225A767B6813229A767B682622D3
S11311F0002199547B68252200219954C046BD469C
S113120002B080BD80B584B000AF78607B681B6895
S1131210FB607B681B681800094B984703001800A3
S1131220084B98477B681800074B9847FB681B6876
S113123002221A43FB681A60C046BD4604B080BD52
S1131240951E0000B91000000511000080B582B0A1
S113125000AF78600A00FB1C1A707B6831229B5C2B
S11312605AB2FB1C1B78012199400B005BB213435B
S11312705BB2D9B27B6831229954C046BD4602B0F4
S113128080BD000090B585B002AF02003960BB1D7F
S11312901A80BB1D1A8806490648074B01933B6810
S11312A000930023054CA047C046BD4603B090BD43
S11312B0FC7200006D14000010330020813F000018
S11312C080B58AB000AF786039600023FB612723C2
S11312D0FB1800221A703B683B627B68002B32D1FA
S11312E03B685A1C3A6030221A703B6800221A701C
S11312F001234EE07B680F221340FB61FB69092B3D
S11313000FD82723FB181B782722BA18591C1170F1
S11313101A00FB69DBB23033D9B20C23FB189954A1
S11313200EE02723FB181B782722BA18591C1170CA
S11313301A00FB69DBB25733D9B20C23FB1899545A
S11313407B681B097B607B68002BD3D11A23FB18B5
S11313502722BA1812781A8010E03B6A5A1C3A62A3
S11313602722BA1827217918097801391170272200
S1131370BA1812780C2179188A5C1A702723FB1882
S11313801B78002BE9D13B6A00221A701A23FB1840
S11313901B881800BD460AB080BD000080B500AFB0
S11313A0034B1800034B9847C046BD4680BDC0465A
S11313B0B80800207116000080B582B000AF7860D4
S11313C07B681800054B984702007968044B1800A5
S11313D0044B9847C046BD4602B080BD6B6C00000C
S11313E0B80800202916000080B584B000AF7860EA
S11313F039600023BB607B68092B08D9BB680233C2
S1131400BB60164B30221A70144B78225A70BA689B
S1131410124BD2187B6811001800114B9847030037
S1131420FB60FA68BB68D318FB603B68002B0BD0E9
S1131430FB685A1CFA60094A0D21D154FB685A1CF6
S1131440FA60064A0A21D154FA680449054B180087
S1131450054B9847C046BD4604B080BDEC0800204B
S1131460C1120000B80800202916000090B587B00A
S113147000AF78601723FB1800221A7001233B6128
S1131480594B1A68594B1A60594C594B1800594B0F
S113149098470200584B21001800584B98470F23D7
S11314A0F918554B01221800554B9847554B1A68AB
S11314B001235B4219001000534B98470300012B92
S11314C0EDD10F23F9184C4B012218004B4B9847D0
S11314D00F23FB181B780A2B04D00F23FB181B784F
S11314E00D2B3DD1494C494B1800424B9847020003
S11314F0414B21001800414B98471723FB181B78D8
S1131500002B08D13B69002B05D1414A414B110006
S11315101800414B98473F4B1800404B9847030035
S11315203B613B69002B05D13A4A394B1100180045
S1131530394B98471723FB1800221A70354B322277
S113154000211800364B9847364C364B1800294B6F
S113155098470200284B21001800284B984742E086
S11315600F23FB181B780D2B99D00F23FB181B7826
S1131570082B04D00F23FB181B787F2B12D11723C1
S1131580FB181B78002B2ED01723FB181A7817236F
S1131590FB18013A1A701723FB181B781D4A002107
S11315A0D15420E00F23FB181B781F2B00D876E7BB
S11315B00F23FB181B787E2B00D970E71723FB1829
S11315C01B78312B00D96AE71723FB181B780F22ED
S11315D0BA1811780F4AD1541723FB181A78172315
S11315E0FB1801321A705AE7103300206C330020C4
S11315F0A07200006B6C0000B808002029160000DF
S113160009280000B408002069390000F8720000BD
S113161034090020000900205B6C0000D55E000046
S1131620376C0000F472000080B586B000AFF8603B
S1131630B9607A600A237B617B68002B0DD07B68DC
S11316409AB2B968FB681800064B9847064B1B68AA
S11316507A6911001800054B9847C046BD4606B08C
S113166080BDC046C1270000B008002069390000D1
S113167090B595B000AF7860032200210120424B61
S113168098470200414B1A60404B1B68002B06D060
S11316903E4B18680023002200213D4CA0473B4BE1
S11316A01B68002B01D172B6FEE703220021012042
S11316B0354B98470200374B1A60364B1B68002B9A
S11316C006D0344B1868002300220021304CA04778
S11316D0304B1B68002B01D172B6FEE72B4B1B6805
S11316E0002118002C4B98472A4B1B680021180036
S11316F0294B98470823FB181800284B98470823C0
S1131700FB18E12252029A620823FB18C4229203B6
S1131710DA600823FB18012252429A630823FB185B
S113172001225242DA630823FB181D4A1A64082373
S1131730FB181C4A5A64C0460823FA181A497B68E5
S113174018001A4B9847031EF6D17B681800184BF3
S1131750984718497B6800221800174B9847174987
S11317607B6801221800144B98477B6800211800FD
S1131770134B98477B6801211800114B9847C046CA
S1131780BD4615B090BDC04605330000B00800202A
S1131790C9330000B4080020693900002911000091
S11317A003002A0003002B0000140042B9230000A8
S11317B0051200000518000079270000C517000075
S11317C04D12000080B584B000AF78600023FB6048
S11317D0094B1B680C22BA1811001800074B9847D4
S11317E0FB68002B03D0064B802252051A60C046CA
S11317F0BD4604B080BDC046B4080020C936000010
S113180004ED00E080B584B000AF78600023FB6095
S1131810094B1B680C22BA1811001800074B984793
S1131820FB68002B03D0064B802252051A60C04689
S1131830BD4604B080BDC046B0080020C9360000D3
S113184004ED00E080B582B000AF78607B680022D0
S11318501A70C046BD4602B080BDF0B58DB000AF71
S1131860B860F9603A607B60002300243B627C62CC
S113187000230024BB61FC613F23FB6253E0FB6A4D
S1131880203B002B04DB01229A4013007B610BE018
S1131890FB6A2022D31A0122DA4013000021FA6ADB
S11318A091400A0013437B610122FB6A9A401300B2
S11318B03B61BB69FC69DB186441BB61FC61BB68CB
S11318C03A691A401500FB687A691A4016002B0021
S11318D0334307D0BB6901221343BB61FB69002278
S11318E01343FB617A68FB699A4219D87A68FB69E9
S11318F09A4203D13A68BB699A4211D8B969FA6924
S11319003B687C68C91AA2410B001400BB61FC61EE
S11319103A6A3B6913433B627A6A7B6913437B628D
S1131920FB6A013BFB62FB6A002BA8DA3B6A7C6A18
S113193018002100BD460DB0F0BD80B586B000AFE3
S1131940F860B9607A601623FB1800221A80BB681D
S11319503B61BB685A08FB689A4201D2402326E0E7
S1131960BB685B083B610AE03A69FB68D31A3B61D8
S11319701623FB181A881623FB1801321A803A69B9
S1131980FB689A42F0D21623FB181622BA18128862
S1131990013A1A801623FB181B88FF2B01D9402318
S11319A005E07B681622BA1812881A8000231800F2
S11319B0BD4606B080BD0000F0B5A1B000AFF8642C
S11319C0B9647A644322BA181370002300243B6775
S11319D07C6700230024BB66FC6600230024BB67ED
S11319E0FC6700237B66582340229446BC4463442E
S11319F01A78FB6C5A43BB6C9A4201D94023B3E07A
S1131A004323FB181B78002B3DD1582340229446D6
S1131A10BC4463441B78DBB23B6100237B61FB6CF9
S1131A20BB600023FB60524CBA68FB683869796973
S1131A30A04703000C001B00FB650023BB65BB6CC7
S1131A403B6000237B60B86DF96D3A687B68494C54
S1131A50A04703000C003B677C67002101223B6F19
S1131A607C6FC91AA2410B001400BB66FC66BB6EF6
S1131A701B0CFA6E16041E43BB6E1D043300BB67B9
S1131A800023FB676AE04323FB181B78012B65D115
S1131A90FB6C3B6300237B63582340229446BC4485
S1131AA063441B78DBB2BB620023FB62304CBA6A2E
S1131AB0FB6A386B796BA04703000C00BB65FC65BF
S1131AC0BB6C3B6200237B62BB6DFC6D1A00230080
S1131AD0386A796A274CA04703000C007B667A6E4B
S1131AE080239B019A4201D940233DE0BB6CBB613A
S1131AF00023FB61B969FA690B005B0F1000C00099
S1131B00F863F86B1843F8630B00DB00BB63BB6D31
S1131B10FC6D1A002300B86BF96B164CA047030048
S1131B200C00BB65FC65BB6DFC6DD9B27B6EDBB292
S1131B30DB00DAB2172340208446BC4463448A1A8B
S1131B401A70172340229446BC4463441B785B03F9
S1131B501A007B6E1343BB670023FB67BB6FFC6FEC
S1131B609AB27B6C1A8000231800BD4621B0F0BDE8
S1131B70356B00005B18000080B584B000AF020034
S1131B80FB1D1A70BB1D0A1C1A701A4B1B7801220C
S1131B905340DBB2002B03D1BB1D1B78002B1BD0A1
S1131BA00C23FB181800144B98470C23FB18FA1D40
S1131BB012781A700C23FB18190012200F4B984747
S1131BC012200F4B98470B4BFA1D12785A70094B91
S1131BD001221A70002308E0064B5B78FA1D127884
S1131BE09A4201D1002300E01D231800BD4604B031
S1131BF080BDC046680900204518000059660000F1
S1131C009966000080B582B000AF78600A00FB1CC2
S1131C101A707B684D4A93423FD04C4A934206D88F
S1131C204B4A93420FD04B4A934221D089E04A4A0F
S1131C30934200D15BE0494A934200D16CE0484AA8
S1131C4093423FD07DE0FB1C1B78012B0AD002DCC1
S1131C50002B05D075E0022B06D0032B06D070E0D4
S1131C60404B6FE0404B6DE0404B6BE0404B69E014
S1131C70FB1C1B78012B0AD002DC002B05D060E092
S1131C80022B06D0032B06D05BE03A4B5AE03A4BCA
S1131C9058E03A4B56E03A4B54E0FB1C1B78012BBE
S1131CA00AD002DC002B05D04BE0022B06D0032B1C
S1131CB006D046E0334B45E0334B43E0334B41E041
S1131CC0334B3FE0FB1C1B78012B0AD002DC002BBA
S1131CD005D036E0022B06D0032B06D031E02D4B85
S1131CE030E02D4B2EE02D4B2CE02D4B2AE0FB1C3D
S1131CF01B78012B0AD002DC002B05D021E0022B3B
S1131D0006D0032B06D01CE0264B1BE0264B19E023
S1131D10264B17E0264B15E0FB1C1B78012B0AD041
S1131D2002DC002B05D00CE0022B06D0032B06D0DE
S1131D3007E0204B06E0204B04E0204B02E0204B60
S1131D4000E000231800BD4602B080BD000C004234
S1131D50000400420008004200140042001800423F
S1131D600010004203000400030005000300060005
S1131D70030007000200100002001100020012001C
S1131D800200130002000C0002000D0002000E000D
S1131D9002000F00020016000200170002001800E3
S1131DA002001900030028000300290003002A0090
S1131DB003002B0003002200030023000300200083
S1131DC00300210090B58BB000AF78600C23FB18A2
S1131DD00F4A13CA13C313CA13C300237B620EE052
S1131DE00C23FB187A6A9200D3581A007B689A4233
S1131DF002D17B6ADBB206E07B6A01337B627B6AD9
S1131E00052BEDD900231800BD460BB090BDC0468C
S1131E100073000080B582B000AF0200FB1D1A7091
S1131E20C046BD4602B080BD80B584B000AF02009C
S1131E303960FB1D1A70134B1B7801225340DBB22F
S1131E40002B15D00023FB600CE00F4BFA689200C6
S1131E500E49D1500E4BFA6892000021D150FB6814
S1131E600133FB60FB68052BEFD9064B01221A7086
S1131E70FB1D1A78044B92003968D150C046BD4608
S1131E8004B080BD6A0900206C090020151E000002
S1131E901433002090B585B000AF78600823FB1898
S1131EA00B4A1168196092889A800F23FC187B688A
S1131EB01800084B9847030023700F23FB181B7866
S1131EC00822BA18D35C5BB21800BD4605B090BDB9
S1131ED018730000C51D000080B500AF034B1B68DC
S1131EE000209847C046BD4680BDC0466C0900200E
S1131EF080B500AF034B5B6801209847C046BD46E0
S1131F0080BDC0466C09002080B500AF034B9B68C0
S1131F1002209847C046BD4680BDC0466C090020DB
S1131F2080B500AF034BDB6803209847C046BD462D
S1131F3080BDC0466C09002080B500AF034B1B690F
S1131F4004209847C046BD4680BDC0466C090020A9
S1131F5080B500AF034B5B6905209847C046BD467A
S1131F6080BDC0466C09002080B582B000AF7860A7
S1131F707B6800221A70C046BD4602B080BD0000D6
S1131F8080B582B000AF02003960FB1D1A70FB1DE2
S1131F901B78012B0AD0022B0FD0002B14D10E4B2F
S1131FA00D4A51693A680A435A610FE00A4B0A4ADA
S1131FB091693A680A439A6108E0074B064AD16975
S1131FC03A680A43DA6101E0172300E000231800AD
S1131FD0BD4602B080BDC0460008004080B582B056
S1131FE000AF78607B6880221A707B6800225A7088
S1131FF07B6801229A707B680022DA70C046BD4675
S113200002B080BD80B500AF054B9B78DBB21A00EF
S1132010022313405A1E9341DBB21800BD4680BD13
S11320200020004180B584B000AF78607B681B68F5
S1132030FB60FB68DB695A1E9341DBB21800BD46A6
S113204004B080BD80B582B000AF7860C0467B68C4
S11320501800044B9847031EF9D1C046BD4602B090
S113206080BDC04625200000B0B58CB002AF7860BA
S113207039607B681B687B617B681B681800C74BF1
S1132080984703003B613B69052B02D119237B620E
S113209002E03B6913337B6200233B620023FB6154
S11320A00A23FB1800221A801B23FB1800221A7033
S11320B01A23FB1810221A703B681B8A8022D20153
S11320C093421CD08022D201934206DC002B0DD017
S11320D080229201934224D035E0C022D20193425F
S11320E028D080221202934212D02CE01B23FB182A
S11320F000221A701A23FB1810221A7023E01B23E3
S1132100FB1800221A701A23FB1808221A701AE00E
S11321101B23FB1800221A701A23FB1803221A70BF
S113212011E01B23FB1801221A701A23FB1810223A
S11321301A7008E01B23FB1801221A701A23FB18DB
S113214008221A70C0463B681A683B68DB681A4369
S11321503B685B6913433A68128A13433A68127EF8
S1132160120213433A682E21525C520713433B6216
S11321701923FB1800221A703B685B68FB60FB683C
S1132180002B1ED08022520593424FD13B682F2250
S11321909B5C01225340DBB2002B46D03B689D6A16
S11321A07B6ADBB218007E4B984701001923FC18A8
S11321B00A23FB181A0028007A4B9847030023705F
S11321C033E03B682F229B5C002B14D03B68986A59
S11321D03B68196B1923FC181B23FB181D780A2371
S11321E0FA181A23FB181B7800932B006E4DA8478E
S11321F0030023701AE03B689D6A7B6ADBB2180017
S1132200674B98471923FC181B23FB1819780A23DA
S1132210FA181A23FB181B7800930B0001002800FE
S1132220614DA8470300237000E0C0461923FB1842
S11322301B78002B03D01923FB181B78A9E03B68FB
S11322405B7E002B03D03B689A7E7B699A730A23DA
S1132250FB181A887B699A813A6AFB6813433B62CC
S11322603B682F229B5C01225340DBB2002B03D03E
S11322703B6A042213433B623B685B7E9A023B68E1
S113228024215B5C5B021A433B6826215B5C1B02D6
S11322901A433B682C215B5C5B041A433B682D2189
S11322A05B5C1B041343FB613B689B7A1A00FB696C
S11322B01343FB613B68DB7A1A00FB691343FB6140
S11322C03B681B89FF2B0BD03B6A802252041343CB
S11322D03B623B681B891A00FB691343FB6108E0FE
S11322E03B68DB7E002B04D03B6A8022D20413437C
S11322F03B627B699B68072213403A68128C134344
S11323003A68528C1A437B699A603B68DB69002BFC
S113231008D03B6A254A13403B623B68DB693A6A52
S113232013433B623B6834229B5C002B03D1204B5C
S11323309847031E03D03B6A802213433B627B68A9
S113234018001C4B98477B69FA695A607B6818002F
S1132350184B98477B693A6A1A607B691A68F023BC
S11323601B051A40E023DB049A4211D07B699B6869
S1132370072293431A007B699A607B699A683B68D9
S113238025215B5C190007230B401A437B699A6083
S113239000231800BD460AB0B0BDC046C51D0000EC
S11323A0496700003B190000B9190000FFFFFFF066
S11323B0052000004520000090B593B000AFF86000
S11323C0B9607A603723FB1800221A70FB68BA6878
S11323D01A60FB681B683B63FB681B681800894B29
S11323E098470300FB62FB6A0133BB62FB6A052B5F
S11323F002D119237B6402E0FB6A13337B643B6BD9
S11324001B680122134001D00523F7E03B6B1B68D6
S11324100222134001D01C23F0E00122BB6A9A403F
S1132420130019000220784B98472423FB18180046
S1132430764B98477B6835229A5C2423FB181A70E4
S11324407B6CDBB22422BA1811001800704B984739
S11324507B6CDBB218006F4B98477B6835229B5C22
S1132460002118006C4B98477B68DA7AFB685A7134
S11324707B682C229A5CFB689A717B682D229A5C9B
S1132480FB68DA717B68DA7EFB681A727B68242247
S11324909A5CFB685A723723FC187A68FB6811004F
S11324A018005E4B9847030023703723FB181B78F2
S11324B0002B03D03723FB181B789FE02023FB1845
S11324C01800574B98472023FB1800225A702023EA
S11324D0FB1800229A707B689A6B1023FB181A6011
S11324E07B68DA6B1023FB185A607B681A6C102324
S11324F0FB189A607B685A6C1023FB18DA6043233C
S1132500FB1800221A702CE04323FB181A781023BE
S1132510FB189200D358FB63FB6B002B09D14323B8
S1132520FB181A78BB68110018003E4B984703004B
S1132530FB63FB6B01330DD0FB6BDAB22023FB187A
S11325401A70FB6B1B0CDBB22022BA1811001800A6
S1132550354B98474323FB181A784323FB18013261
S11325601A704323FB181B78032BCDD90023BB63BC
S11325700AE0FA68BB6B02339B00D31804330022D1
S11325801A60BB6B0133BB63BB6B052BF1D9FB68D2
S113259000229A62FB6800225A62FB680022DA85F4
S11325A0FB6800229A85FB68302200219954FB685D
S11325B0312200219954FB68322200219954FB688E
S11325C0332200219954FB681B682722BC18180089
S11325D00C4B984703002370144A2723FB181B78DD
S11325E011001800124B98472723FB181A78114B37
S11325F09200F968D1503723FB181B781800BD46A8
S113260013B090BDC51D0000811F0000691F0000AC
S11326105966000099660000791B000069200000DB
S1132620DD1F0000051C00000D690000512800009A
S1132630291E00001433002080B500AF024B9847D8
S1132640C046BD4680BDC046D560000080B500AF21
S1132650024B9847C046BD4680BDC0462961000074
S113266080B584B000AF78607B681B68FB60FB6852
S1132670DB695A1E9341DBB21800BD4604B080BD2D
S113268080B582B000AF7860C0467B681800044B08
S11326909847031EF9D1C046BD4602B080BDC0466E
S11326A06126000080B586B000AFF860B960BB1D3C
S11326B01A80FB681B687B610F4B9847FB68DB8DB6
S11326C09BB2002B03D00D4B9847052310E0FB6809
S11326D0BA1D1288DA85094B9847FB68BA689A6272
S11326E0FB683322052199547B6901229A750023E2
S11326F01800BD4606B080BD392600004D260000F6
S113270080B586B000AFF860B960BB1D1A80FB6865
S11327101B687B61164B9847FB689B8D9BB2002B13
S113272003D0144B984705231EE0FB68BA1D12889A
S11327309A85104B9847FB68BA685A62FB68322244
S1132740052199547B6904229A75FB681B7A002B36
S113275002D07B6920229A75FB685B7A002B02D039
S11327607B6908229A7500231800BD4606B080BD17
S1132770392600004D26000080B584B000AFF86013
S1132780B960FB1D1A70FB1D1B78FA6802339B00AD
S1132790D3180433BA681A60FB6830229B5C5AB2BF
S11327A0FB1D1B78012199400B005BB213435BB204
S11327B0D9B2FB6830229954C046BD4604B080BDEE
S11327C080B584B000AFF860B960BB1D1A80BB1D32
S11327D01B88002B01D1172310E0FB68DB79012251
S11327E05340DBB2002B01D01C2307E0BB1D1A8829
S11327F0B968FB681800034B984703001800BD46EE
S113280004B080BDA526000080B584B000AFF86098
S1132810B960BB1D1A80BB1D1B88002B01D1172377
S113282010E0FB689B7901225340DBB2002B01D0FE
S11328301C2307E0BB1D1A88B968FB681800034B0A
S1132840984703001800BD4604B080BD012700006E
S113285080B588B000AF0200FB1D1A70FB1D1A780A
S1132860AA4B9200D358BB61BB691B687B61BB69EF
S11328701800A74B98477B691B7EDAB21223FB181A
S11328801A807B699B7DDBB29AB21223FB1812215A
S1132890791809880A401A80BB6930229B5CBA699E
S11328A03121525C1340DAB21023FB181A80122330
S11328B0FB181B880122134044D0BB69DB8D9BB2FB
S11328C0002B3CD0BB699B6A1B78DAB21C23FB1833
S11328D01A80BB699B6A5A1CBB699A62BB695B79A3
S11328E0012B13D1BB699B6A1B78DBB21B021AB2A2
S11328F01C23FB1800215B5E13431AB21C23FB1834
S11329001A80BB699B6A5A1CBB699A621C23FB1818
S11329101B88DB05DB0D9AB27B691A85BB69DB8DED
S11329209BB2013B9BB2BA69191CD185002B09D11A
S11329307B6901221A757B6902229A7502E07B6920
S113294001221A751223FB181B880222134011D08E
S11329507B6902221A75BB69332200219954102322
S1132960FB181B880122134004D0BB69DB68BA69D9
S1132970100098471223FB181B880422134000D12F
S1132980CBE0BB699B8D9BB2002B00D1C2E07B697D
S11329905B8B9BB2DAB21F23FB187F210A401A70AB
S11329A01F23FB181B780822134007D01F23FB1892
S11329B01F22BA18127808218A431A701F23FB18A1
S11329C01B784022134007D01F23FB181F22BA187C
S11329D0127840218A431A701F23FB181B78002B9E
S11329E050D01F23FB181B780222134007D0BB6969
S11329F032221A2199547B6902225A8336E01F231A
S1132A00FB181B780422134007D0BB6932221E2115
S1132A1099547B6904225A8328E01F23FB181B78EE
S1132A200122134007D0BB693222132199547B69D8
S1132A3001225A831AE01F23FB181B78102213402B
S1132A4007D0BB693222422199547B6910225A83F0
S1132A500CE01F23FB181B782022134006D0BB690F
S1132A603222412199547B6920225A831023FB1876
S1132A701B880422134050D0BB695B69BA691000FB
S1132A8098474AE07B691B8D9AB20E23FB18D20546
S1132A90D20D1A80BB695B6A0E22BA181288D2B2B0
S1132AA01A70BB695B6A5A1CBB695A62BB695B7961
S1132AB0012B0DD1BB695B6A0E22BA181288120A67
S1132AC092B2D2B21A70BB695B6A5A1CBB695A6271
S1132AD0BB699B8D9BB2013B9BB2BA69191C918562
S1132AE0002B1AD17B6904221A75BB69322200219A
S1132AF099541023FB181B88022213400DD0BB6984
S1132B001B69BA691000984707E0C04614330020D7
S1132B10812600007B6904221A751223FB181B8886
S1132B201022134010D07B6910221A757B69102281
S1132B301A761023FB181B881022134004D0BB699B
S1132B40DB69BA69100098471223FB181B882022FE
S1132B50134010D07B6920221A757B6920221A76D3
S1132B601023FB181B880822134004D0BB699B69FF
S1132B70BA69100098471223FB181B8808221340D7
S1132B8010D07B6908221A757B6908221A761023F3
S1132B90FB181B882022134004D0BB691B6ABA6946
S1132BA010009847C046BD4608B080BD80B582B0CD
S1132BB000AF78607B6801225A607B6800225A70FB
S1132BC07B6806221A707B6800221A727B680022D6
S1132BD05A72C046BD4602B080BD000080B582B0C6
S1132BE000AF0200FB1D1A70054AFB1D1B78012172
S1132BF099400B00DBB21371C046BD4602B080BDE4
S1132C000008004080B582B000AF0200FB1D1A70BE
S1132C10084AFB1D1B780F210B40D9B253680F20C3
S1132C20014049001E2083430B435360C046BD4608
S1132C3002B080BD0040004180B582B000AF020008
S1132C40FB1D1A70FB1D1B78072B29D89A00174B04
S1132C50D3181B689F46164B5B6822E0154B5B7DBF
S1132C601B071B0FDBB201331A00134B110013486F
S1132C709847030015E080231B0212E080231B0207
S1132C800FE00B4B9B680CE00A4B1B7FDBB21A0076
S1132C900223134001D1002303E0054B1B6800E02D
S1132CA000231800BD4602B080BDC046207300005A
S1132CB084090020001000401D6A0000006CDC0242
S1132CC080B59EB000AF2B4B03229A6002202A4BA2
S1132CD098472A49294B1B7DDBB280225242134379
S1132CE0DBB20B75254B00225A75C046234B9B69FA
S1132CF0002BFBD1224B98470C23FB181800214BC7
S1132D0098470C23FB1806221A700C23FB18012287
S1132D105A600C23FB1800221A720C23FB180022A1
S1132D205A720C23FB1819000820174B98470820E7
S1132D30164B98470020164B98473B001800114B40
S1132D4098473B0006221A703B0001225A603B0060
S1132D5000221A723B0000225A723B001900002024
S1132D60094B98470020094B9847C046BD461EB002
S1132D7080BDC04600180040052C00000010004033
S1132D80FD630000AD2B00002D6400003D650000D4
S1132D90DD2B000080B500AFC046BD4680BD0000FD
S1132DA080B500AF064B9847064B9847064B9847AB
S1132DB0064B9847064B9847C046BD4680BDC04663
S1132DC0C12C000065620000952D0000952D0000C7
S1132DD0952D000080B582B000AF78607B68083321
S1132DE01A007B685A607B68012252429A607B68B1
S1132DF008331A007B68DA607B6808331A007B6842
S1132E001A617B6800221A60C046BD4602B080BDCC
S1132E1080B582B000AF78607B6800221A61C0463A
S1132E20BD4602B080BD80B584B000AF7860396023
S1132E307B685B68FB603B68FA685A60FB689A6869
S1132E403B689A60FB689B683A685A60FB683A681A
S1132E509A603B687A681A617B681B685A1C7B68B5
S1132E601A60C046BD4604B080BD80B584B000AFD2
S1132E70786039603B681B68BB60BB68013303D171
S1132E807B681B69FB600CE07B680833FB6002E035
S1132E90FB685B68FB60FB685B681A68BB689A4206
S1132EA0F6D9FB685A683B685A603B685B683A68C5
S1132EB09A603B68FA689A60FB683A685A603B68B3
S1132EC07A681A617B681B685A1C7B681A60C04662
S1132ED0BD4604B080BD80B584B000AF78607B6827
S1132EE01B69FB607B685B687A6892689A607B68A0
S1132EF09B687A6852685A60FB685A687B689A4291
S1132F0003D17B689A68FB685A607B6800221A6167
S1132F10FB681B685A1EFB681A60FB681B68180074
S1132F20BD4604B080BD000080B584B000AFF86039
S1132F30B9607A60FB68043BFB60FB688022520442
S1132F401A60FB68043BFB60BA68FB681A60FB68A4
S1132F50043BFB60084AFB681A60FB68143BFB6097
S1132F607A68FB681A60FB68203BFB60FB6818000A
S1132F70BD4604B080BDC0467D2F000080B582B040
S1132F8000AF00237B60074B1B68013301D072B68E
S1132F90FEE772B6C0467B68002BFCD0C046BD4637
S1132FA002B080BD0400002000000000000000000A
S1132FB00B4A13681868203080F30988022080F3D4
S1132FC01488BFF36F8F3FBCAE4608BC04BC62B626
S1132FD01847C046C046C046C046C046C046C04664
S1132FE098310020C046C04680B500AF0E4B0E4A53
S1132FF01268FF2109040A431A600B4B0A4A12683B
S1133000FF2109060A431A60084B9847084B00221F
S11330101A60084B9847084B9847084B9847002379
S11330201800BD4680BDC04620ED00E059310000C7
S113303004000020B12F0000E54500007D2F0000B2
S113304080B500AF054B802252051A60BFF34F8F45
S1133050BFF36F8FC046BD4680BDC04604ED00E09F
S113306080B500AF72B6064B1B685A1C044B1A603D
S1133070BFF34F8FBFF36F8FC046BD4680BDC046C0
S11330800400002080B500AF094B1B68002B01D160
S113309072B6FEE7064B1B685A1E054B1A60044BBA
S11330A01B68002B00D162B6C046BD4680BDC04639
S11330B004000020EFF3108072B67047C046180079
S11330C080F310887047C046000000000000000034
S11330D0EFF309800E4B1A6820381060F0C04446A4
S11330E04D4656465F46F0C008B572B601F07AFA0E
S11330F062B60CBC116808681030F0C8A046A94636
S1133100B246BB4680F309882038F0C81847C04649
S113311098310020C046C04680B582B000AF0A4B4B
S1133120984703007B60094B9847031E03D0084B64
S1133130802252051A607B681800064B9847C046E7
S1133140BD4602B080BDC046B53000005D440000FD
S113315004ED00E0C130000080B500AF074B002251
S11331601A60074B00221A60064B074A1A60034B89
S113317007221A60C046BD4680BDC04610E000E08C
S113318018E000E014E000E0FF52070080B584B0CE
S113319000AF78600023FB607B680722134004D0F3
S11331A07B680722934308337B60194B9847194B7C
S11331B01B68002B05D1184B072293431A00154BAB
S11331C01A60164B1A687B68D318154A934213D8B1
S11331D0124B1A687B68D218104B1B689A420BD9A1
S11331E00C4B1A680D4B1B68D318FB600B4B1A6809
S11331F07B68D218094B1A600A4B9847FB68002B6E
S113320001D1094B9847FB681800BD4604B080BD46
S1133210F5420000943100209809002090310020EC
S1133220F72700000D4300008D60000080B582B0D8
S113323000AF78607B68002B01D072B6FEE7C04611
S1133240BD4602B080BD000080B584B000AF786098
S113325039607B68FB60FB68002B01D172B6FEE726
S1133260234B9847FB681A68FB68D96BFB681B6C97
S11332704B43D218FB685A60FB6800229A63FB68D0
S11332801A68FB689A60FB681A68FB68DB6B591E56
S1133290FB681B6C4B43D218FB68DA60FB68442262
S11332A0FF219954FB684522FF2199543B68002B68
S11332B00DD1FB681B69002B13D0FB681033180079
S11332C00C4B9847031E0CD00B4B984709E0FB6846
S11332D010331800094B9847FB6824331800074B38
S11332E09847074B984701231800BD4604B080BD9A
S11332F0613000007547000041300000D52D00000A
S11333008530000090B58BB002AFF860B960FB1D4A
S11333101A70FB68002B01D172B6FEE7BB68002B64
S113332002D10023FB6103E0FB68BA685343FB61ED
S1133330FB69543318000C4B98470300BB61BB690D
S1133340002B0CD0BB6954337B61FB1D1C787A695C
S1133350B968F868BB6900932300044CA047BB69B3
S11333601800BD4609B090BD8D31000071330000D6
S113337080B584B000AFF860B9607A601A00FB1CB5
S11333801A70BB68002B03D1BB69BA691A6002E0EA
S1133390BB697A681A60BB69FA68DA63BB69BA68A0
S11333A01A64BB6901211800064B9847BB69FA1CD3
S11333B0502112785A54BB6900229A64C046BD4613
S11333C004B080BD4932000080B58AB000AFF86017
S11333D0B9607A603B6000237B62FB683B623B6AB6
S11333E0002B01D172B6FEE7BB68002B03D13B6A08
S11333F01B6C002B01D1012300E00023002B01D121
S113340072B6FEE73B68022B03D13B6ADB6B012BF0
S113341001D1012300E00023002B01D172B6FEE7A5
S1133420534B9847031E02D17B68002B01D1012323
S113343000E00023002B01D172B6FEE74D4B984704
S11334403B6A9A6B3B6ADB6B9A4202D33B68022B62
S11334502DD13A68B9683B6A1800474B9847030076
S1133460FB613B6A9B6C002B0AD03A683B6A1100F3
S11334701800424B9847031E15D0414B984712E061
S11334803B6A5B6A002B09D03B6A243318003D4B2E
S11334909847031E07D03A4B984704E0FB69002B7A
S11334A001D0374B9847384B984701235CE07B6841
S11334B0002B03D1344B9847002355E07B6A002B43
S11334C006D11423FB181800304B984701237B6264
S11334D02D4B98472E4B9847264B98473B6A4422DE
S11334E09B5C5BB2013303D13B6A442200219954B3
S11334F03B6A45229B5C5BB2013303D13B6A4522A4
S113350000219954204B98473A1D1423FB181100AD
S11335101800204B9847031E1FD13B6A18001E4B0E
S11335209847031E12D03B6A10337A6811001800C2
S11335301A4B98473B6A1800194B9847194B984700
S1133540031E00D07AE70E4B984777E73B6A1800D2
S1133550134B9847134B984770E73B6A1800104B7E
S11335609847104B984700231800BD460AB080BD09
S1133570AD4A000061300000893B0000DD3E0000E0
S113358041300000754700008530000035480000D8
S1133590F54200005D480000DD3D0000DD4600000E
S11335A0B93C00000D43000080B588B000AFF8605E
S11335B0B9607A603B60FB68BB61BB69002B01D1D9
S11335C072B6FEE7BB68002B03D1BB691B6C002BF2
S11335D001D1012300E00023002B01D172B6FEE7E4
S11335E03B68022B03D1BB69DB6B012B01D10123A7
S11335F000E00023002B01D172B6FEE72D4B984763
S113360003007B61BB699A6BBB69DB6B9A4202D393
S11336103B68022B42D11323FB18BA694521525C43
S11336201A703A68B968BB691800234B984713238A
S1133630FB181B785BB2013324D1BB699B6C002B54
S11336400ED03A68BB69110018001C4B9847031E42
S113365021D07B68002B1ED07B6801221A601AE0FF
S1133660BB695B6A002B16D0BB6924331800144B6A
S11336709847031E0FD07B68002B0CD07B68012277
S11336801A6008E01323FB181B780133DBB259B22C
S1133690BB69452299540123FB6101E00023FB61CE
S11336A07B691800074B9847FB691800BD4608B0B2
S11336B080BDC046B5300000893B0000DD3E0000FF
S11336C075470000C130000080B588B000AF786055
S11336D039607B68BB61BB69002B01D172B6FEE720
S11336E0BB691B6C002B01D072B6FEE7BB691B687B
S11336F0002B03D1BB695B68002B01D1012300E0DF
S11337000023002B01D172B6FEE72B4B9847030030
S11337107B61BB699B6B3B61BB69DA6B3B699A421A
S11337203FD90F23FB18BA694521525C1A703B69D3
S11337305A1CBB699A630F23FB181B785BB20133D5
S113374023D1BB699B6C002B0DD0BB6900211800F1
S11337501A4B9847031E21D03B68002B1ED03B68B0
S113376001221A601AE0BB695B6A002B16D0BB69A0
S113377024331800124B9847031E0FD03B68002BCC
S11337800CD03B6801221A6008E00F23FB181B7859
S11337900133DBB259B2BB69452299540123FB6161
S11337A001E00023FB617B691800064B9847FB6925
S11337B01800BD4608B080BDB5300000DD3E0000F5
S11337C075470000C130000080B58AB000AFF860D2
S11337D0B9607A6000237B62FB683B623B6A002B22
S11337E001D172B6FEE7BB68002B03D13B6A1B6CA8
S11337F0002B01D1012300E00023002B01D172B67C
S1133800FEE74C4B9847031E02D17B68002B01D185
S1133810012300E00023002B01D172B6FEE7464BE2
S113382098473B6A9B6BFB61FB69002B1AD0BA6813
S11338303B6A11001800414B9847FB695A1E3B6ACA
S11338409A633B6A1B69002B08D03B6A103318004B
S11338503B4B9847031E01D03A4B98473A4B984745
S1133860012362E07B68002B03D1374B9847002388
S11338705BE07B6A002B06D11423FB181800334B42
S1133880984701237B62304B9847314B98472A4B2A
S113389098473B6A44229B5C5BB2013303D13B6A89
S11338A04422002199543B6A45229B5C5BB201335C
S11338B003D13B6A452200219954234B98473A1D72
S11338C01423FB1811001800224B9847031E1ED125
S11338D03B6A1800204B9847031E11D03B6A2433DF
S11338E07A68110018001D4B98473B6A18001C4B5E
S11338F098471C4B9847031E91D1124B98478EE76B
S11339003B6A1800164B9847164B984787E73B6A63
S11339101800134B9847134B98473B6A18000E4BFB
S11339209847031E00D17AE700231800BD460AB069
S113393080BDC046AD4A000061300000693C000013
S11339407547000041300000853000003548000014
S1133950F54200005D480000A93D0000DD4600007E
S1133960B93C00000D43000080B58AB000AF786018
S1133970396000237B627B68FB6100233B62FB6947
S1133980002B01D172B6FEE7FB691B6C002B01D042
S113399072B6FEE7614B9847031E02D13B68002BC9
S11339A001D1012300E00023002B01D172B6FEE710
S11339B05B4B9847FB699B6BBB61BB69002B1DD0BC
S11339C0BB695A1EFB699A63FB691B68002B04D10F
S11339D0544B98470200FB695A60FB691B69002B32
S11339E008D0FB69103318004F4B9847031E01D0D1
S11339F04E4B98474E4B984701238BE03B68002B76
S1133A0008D13B6A002B01D072B6FEE7484B9847B9
S1133A1000237FE07B6A002B06D10C23FB181800DF
S1133A20444B984701237B62414B9847424B98474C
S1133A303B4B9847FB6944229B5C5BB2013303D147
S1133A40FB69442200219954FB6945229B5C5BB2CB
S1133A50013303D1FB69452200219954344B984723
S1133A603A000C23FB1811001800344B9847031E2E
S1133A702ED1FB691800324B9847031E21D0FB69F5
S1133A801B68002B0AD1264B9847FB695B6818001A
S1133A902C4B984703003B62254B9847FB69243322
S1133AA03A6811001800284B9847FB691800274B07
S1133AB09847274B9847031E00D079E71B4B98473C
S1133AC076E7FB691800214B9847214B98476FE72D
S1133AD0FB6918001D4B98471D4B9847FB6918005C
S1133AE0174B9847031E00D162E73B6A002B10D0A6
S1133AF00B4B9847FB691800164B984703007B61F2
S1133B00FB695B687A6911001800134B9847084BEE
S1133B10984700231800BD460AB080BDAD4A000096
S1133B2061300000794D000075470000413000000D
S1133B308530000035480000F54200005D48000073
S1133B40A93D0000E54A0000DD460000B93C000044
S1133B500D4300005D3B0000894C000080B584B03B
S1133B6000AF78607B685B6A002B06D07B681B6BB8
S1133B701B680522D31AFB6001E00023FB60FB688D
S1133B801800BD4604B080BD80B586B000AFF860B3
S1133B90B9607A6000237B61FB689B6B3B61FB68C7
S1133BA01B6C002B0ED1FB681B68002B4ED1FB68ED
S1133BB05B6818002A4B984703007B61FB6800226E
S1133BC05A6043E07B68002B19D1FB689868FB6856
S1133BD01A6CBB681900234B9847FB689A68FB680A
S1133BE01B6CD218FB689A60FB689A68FB685B6878
S1133BF09A422BD3FB681A68FB689A6026E0FB683C
S1133C00D868FB681A6CBB681900164B9847FB68A8
S1133C10DA68FB681B6C5B42D218FB68DA60FB68ED
S1133C20DA68FB681B689A4207D2FB685A68FB682B
S1133C301B6C5B42D218FB68DA607B68022B05D1EF
S1133C403B69002B02D03B69013B3B613B695A1C39
S1133C50FB689A637B691800BD4606B080BDC04608
S1133C60C94B0000256C000080B582B000AF7860BD
S1133C7039607B681B6C002B18D07B68DA687B6822
S1133C801B6CD2187B68DA607B68DA687B685B68D7
S1133C909A4203D37B681A687B68DA607B68D968C8
S1133CA07B681A6C3B681800024B9847C046BD46B7
S1133CB002B080BD256C000080B584B000AF786090
S1133CC0344B98470F23FB187A684521525C1A70CD
S1133CD022E07B689B6C002B09D07B6800211800D4
S1133CE02D4B9847031E0FD02C4B98470CE07B6854
S1133CF05B6A002B17D07B6824331800284B984745
S1133D00031E01D0254B98470F23FB181B78013B5A
S1133D10DAB20F23FB181A700F23FB181B785BB25F
S1133D20002BD6DC00E0C0467B684522FF21995475
S1133D301C4B9847174B98470E23FB187A6844216D
S1133D40525C1A7014E07B681B69002B17D07B68E7
S1133D5010331800124B9847031E01D00F4B98479D
S1133D600E23FB181B78013BDAB20E23FB181A70E2
S1133D700E23FB181B785BB2002BE4DC00E0C0468A
S1133D807B684422FF219954064B9847C046BD46A0
S1133D9004B080BD61300000DD3E00000949000030
S1133DA0754700008530000080B584B000AF7860AE
S1133DB0084B98477B689B6B002B02D10123FB6067
S1133DC001E00023FB60044B9847FB681800BD46E4
S1133DD004B080BD613000008530000080B584B03F
S1133DE000AF7860094B98477B689A6B7B68DB6B04
S1133DF09A4202D10123FB6001E00023FB60044BE3
S1133E009847FB681800BD4604B080BD61300000CF
S1133E108530000080B584B000AF7860396000233D
S1133E20FB6015E00E4BFA68D200D358002B0CD17E
S1133E300B4BFA68D2003968D150094AFB68DB00A1
S1133E40D31804337A681A6005E0FB680133FB6019
S1133E50FB68072BE6D9C046BD4604B080BDC0460A
S1133E602C33002080B586B000AFF860B9607A606A
S1133E70FB687B61154B98477B6944229B5C5BB272
S1133E80013303D17B694422002199547B69452283
S1133E909B5C5BB2013303D17B69452200219954B9
S1133EA00B4B98477B699B6B002B06D17B692433B2
S1133EB07A68B9681800074B98477B691800064B65
S1133EC09847C046BD4606B080BDC046613000007C
S1133ED08530000021470000B93C000080B586B061
S1133EE000AF786039607B689B6C3B6100237B6129
S1133EF03B69002B01D172B6FEE73B699A6B3B69C3
S1133F00DB6B9A4201D372B6FEE73B699A6B3B695D
S1133F10DB6B9A422AD20F23FB183A694521525C83
S1133F201A703A68391D3B691800134B984703000F
S1133F307B610F23FB181B785BB201330DD13B6906
S1133F405B6A002B12D03B69243318000B4B984753
S1133F50031E0BD001237B6108E00F23FB181B78A1
S1133F600133DBB259B23B69452299547B6918008D
S1133F70BD4606B080BDC046893B000075470000C1
S1133F8090B58DB004AFF860B9603B60BB1D1A807A
S1133F90BB1D1B889B0018001D4B984703007B61C9
S1133FA07B69002B10D05820194B98470300FB6104
S1133FB0FB69002B03D0FB697A691A6306E07B690D
S1133FC01800144B984701E00023FB61FB69002BA8
S1133FD016D0BB1D1A883C68B968F868002303939F
S1133FE0FB6902937B6B01933B6B009323000A4CA8
S1133FF0A047FB691800094B98470123BB6102E005
S113400001235B42BB61BB691800BD4609B090BD8A
S11340108D3100002D3200002140000031410000AC
S113402080B586B000AFF860B9607A603B60BB6A67
S1134030186B7B689B001A00A521394B9847BB6A13
S11340401A6B7B6837498C4663449B00D3183B61E9
S11340503B69072293433B613B690722134001D02C
S113406072B6FEE700237B6113E0BA687B69D3185C
S11340701878BA6A34217B69D3185B18021C1A7049
S1134080BA687B69D3181B78002B06D07B6901338F
S11340907B617B69092BE8D900E0C046BB6A3D22FD
S11340A0002199543B6A042B01D904233B62BB6A67
S11340B03A6ADA62BB6A3A6A9A64BB6A0022DA64D0
S11340C0BB6A04331800184B9847BB6A18331800AE
S11340D0154B9847BB6ABA6A1A613B6A0522D21A21
S11340E0BB6A9A61BB6ABA6A5A62BB6A00221A65E1
S11340F0BB6A5422002199543A68F9683B69180054
S11341000A4B98470200BB6A1A607B6A002B02D0F4
S11341107B6ABA6A1A60C046BD4606B080BDC04616
S1134120376C0000FFFFFF3F112E0000292F000015
S113413080B582B000AF78602B4B98472B4B1B683F
S11341405A1C2A4B1A602A4B1B68002B09D1284B96
S11341507A681A60254B1B68012B10D1254B9847B0
S11341600DE0254B1B68002B09D1214B1B68DA6A33
S11341707B68DB6A9A4202D81D4B7A681A601F4B2F
S11341801B685A1C1D4B1A601C4B1A687B681A6406
S11341907B68DA6A1A4B1B689A4203D97B68DA6A2D
S11341A0174B1A607B68DA6A13009B009B189B000C
S11341B0144A9A187B68043319001000124B98476C
S11341C0124B98470C4B1B68002B08D0084B1B68FC
S11341D0DA6A7B68DB6A9A4201D20D4B9847C04683
S11341E0BD4602B080BDC046613000007032002080
S11341F098310020454900007C3200208C32002098
S1134200783200209C310020272E000085300000E9
S11342104130000080B584B000AF78600023FB60BB
S11342207B68002B10D00D4B1B68002B01D072B69D
S1134230FEE70B4B98477B6800211800094B984711
S1134240094B98470300FB60FB68002B01D1074B27
S11342509847C046BD4604B080BDC0469832002091
S1134260F5420000354F00000D43000041300000CE
S113427090B585B002AF16491648174B0193002339
S1134280009300238222154CA04703007B607B68C7
S1134290012B03D1124B984703007B607B68012BF1
S11342A00DD172B60F4B012252421A600E4B0122FD
S11342B01A600E4B00221A600D4B984704E07B688D
S11342C0013301D172B6FEE7C046BD4603B090BDCE
S11342D0407300001D49000094320020813F00001B
S11342E0E94F0000903200207C320020743200201C
S11342F0E92F000080B500AF034B1B685A1C024B2A
S11343001A60C046BD4680BD9832002080B584B096
S113431000AF0023FB600023BB603A4B1B68002BFB
S113432001D172B6FEE7384B9847364B1B685A1ECC
S1134330344B1A60334B1B68002B5BD1334B1B6827
S1134340002B57D02FE0324BDB68DB68FB60FB6847
S1134350183318002F4B9847FB68043318002D4B73
S11343609847FB68DA6A2C4B1B689A4203D9FB68AE
S1134370DA6A294B1A60FB68DA6A13009B009B18FF
S11343809B00264A9A18FB68043319001000244B3A
S11343909847FB68DA6A234B1B68DB6A9A4202D3AC
S11343A0214B01221A601A4B1B68002BCBD1FB68EE
S11343B0002B01D01D4B98471D4B1B687B607B680D
S11343C0002B0FD01B4B9847031E02D0164B012223
S11343D01A607B68013B7B607B68002BF2D1144B35
S11343E000221A60104B1B68002B03D00123BB6012
S11343F0114B9847114B9847BB681800BD4604B051
S113440080BDC04698320020613000007032002028
S113441030320020D72E0000783200209C3100205A
S1134420272E00009831002084320020654A0000C5
S1134430803200205D4400004130000085300000DF
S113444080B582B000AF044B1B687B607B681800AA
S1134450BD4602B080BDC0467432002080B586B02F
S113446000AF00237B61504B1B68002B00D089E018
S11344704E4B1B6801333B614C4B3A691A603B69F4
S1134480002B17D14A4B1B681B68002B01D072B656
S1134490FEE7474B1B68FB60464B1A68444B1A60A7
S11344A0444BFA681A60444B1B685A1C424B1A600E
S11344B0424B9847424B1B683A699A424ED33C4B55
S11344C01B681B68002B01D1012300E00023002B93
S11344D004D03B4B012252421A603FE0344B1B682C
S11344E0DB68DB68BB60BB685B687B603A697B68E0
S11344F09A4203D2324B7A681A602FE0BB680433C5
S11345001800304B9847BB689B6A002B04D0BB68EB
S1134510183318002B4B9847BB68DA6A2A4B1B6880
S11345209A4203D9BB68DA6A274B1A60BB68DA6A15
S113453013009B009B189B00244A9A18BB68043301
S113454019001000224B9847BB68DA6A214B1B689C
S1134550DB6A9A42B3D301237B61B0E71D4B1B682E
S1134560DA6A1A4913009B009B189B005B58012BC5
S113457001D901237B61184B1B68002B09D1174B10
S1134580984706E0144B1B685A1C134B1A60134BD4
S11345909847134B1B68002B01D001237B617B6977
S11345A01800BD4606B080BD983200207432002049
S11345B0283200202C32002088320020654A000076
S11345C090320020D72E0000783200209C31002049
S11345D0272E00009831002080320020A5600000C2
S11345E08432002080B584B000AF354B1B68002BAB
S11345F003D0344B01221A605DE0324B00221A6072
S1134600314B1B681B6BBB60304B7B60BB681A680B
S11346107B689A4211D1BB6804331A687B689A425A
S11346200BD1BB6808331A687B689A4205D1BB6812
S11346300C331A687B689A4208D0234B1A68224BC1
S11346401B68343319001000214B9847214B1B6819
S1134650FB6007E0FB68002B01D172B6FEE7FB6844
S1134660013BFB601C49FA6813009B009B189B00EC
S11346705B58002BEED0FA6813009B009B189B003C
S1134680154A9B183B603B685B685A683B685A60F4
S11346903B685A683B6808339A4204D13B685B68BC
S11346A05A683B685A603B685B68DA68064B1A6074
S11346B0084BFA681A60C046BD4604B080BDC046C7
S11346C0983200208432002098310020A5A5A5A5A9
S11346D095600000783200209C31002080B582B0C3
S11346E000AF786039607B68002B01D172B6FEE7B9
S11346F0084B1B6818331A007B6811001800064B1E
S113470098473B6801211800044B9847C046BD46B2
S113471002B080BD983100206B2E0000354F0000A0
S113472080B584B000AFF860B9607A60FB68002B94
S113473001D172B6FEE70C4B1B6818331A00FB68F4
S113474011001800094B98477B68002B02D0012305
S11347505B42BB607A68BB6811001800044B984741
S1134760C046BD4604B080BD98310020272E00000D
S1134770354F000080B584B000AF78607B68DB689B
S1134780DB68BB60BB68002B01D172B6FEE7BB6877
S1134790183318001F4B98471F4B1B68002B1DD163
S11347A0BB68043318001B4B9847BB68DA6A1B4B81
S11347B01B689A4203D9BB68DA6A184B1A60BB6853
S11347C0DA6A13009B009B189B00154A9A18BB6871
S11347D0043319001000134B984707E0BB681833E3
S11347E01A00114B110018000E4B9847BB68DA6A87
S11347F00E4B1B68DB6A9A4205D90123FB600C4B04
S113480001221A6001E00023FB60FB681800BD462A
S113481004B080BDD72E00009832002078320020EA
S11348209C310020272E00003032002098310020D7
S11348308432002080B582B000AF7860054B1A68DE
S11348407B681A60044B1A687B685A60C046BD4690
S113485002B080BD883200207432002080B586B05A
S113486000AF786039607B68002B01D172B6FEE737
S11348703B68002B01D172B6FEE71E4B98471E4BD6
S11348801B683B617B685B683A69D31AFB603B68D1
S11348901B68013302D100237B6124E07B681A6822
S11348A0164B1B689A4207D07B685A683B699A4248
S11348B002D801237B6116E03B681A68FB689A42C0
S11348C00CD93B681A68FB68D21A3B681A607B688B
S11348D018000B4B984700237B6104E03B680022DF
S11348E01A6001237B61074B98477B691800BD461A
S11348F006B080BD61300000743200208832002090
S1134900354800008530000080B500AF024B01221D
S11349101A60C046BD4680BD8432002080B582B096
S113492000AF7860044B9847044B1B68012BF9D9FE
S1134930034B9847F6E7C046D14900009C3100205C
S11349404130000080B582B000AF00237B600CE0F2
S11349507A6813009B009B189B00144A9B1818004C
S1134960134B98477B6801337B607B68042BEFD93A
S1134970104B18000E4B98470F4B18000C4B9847E0
S11349800E4B18000A4B98470D4B1800084B9847DC
S11349900C4B1800064B98470B4B064A1A600B4BFE
S11349A0054A1A60C046BD4602B080BD9C31002055
S11349B0D52D0000003200201432002030320020B7
S11349C0443200205C320020283200202C320020A7
S11349D080B582B000AF1AE0114B9847114BDB68E9
S11349E0DB687B607B68043318000F4B98470F4BE0
S11349F01B685A1E0D4B1A600D4B1B685A1E0C4B3C
S1134A001A600C4B98477B6818000B4B9847084B6F
S1134A101B68002BE0D1C046BD4602B080BDC04635
S1134A206130000044320020D72E00007032002094
S1134A3058320020853000003D4A000080B582B025
S1134A4000AF78607B681B6B1800054B98477B6848
S1134A501800034B9847C046BD4602B080BDC0460F
S1134A602D32000080B582B000AF0E4B1B681B686E
S1134A70002B01D1012300E00023002B04D00A4BBA
S1134A80012252421A6008E0064B1B68DB68DB68AF
S1134A907B607B685A68044B1A60C046BD4602B00E
S1134AA080BDC046283200209032002080B582B0FC
S1134AB000AF0A4B1B68002B02D101237B6008E086
S1134AC0074B1B68002B02D102237B6001E000230B
S1134AD07B607B681800BD4602B080BD7C3200203C
S1134AE09832002080B584B000AF78607B68BB60EA
S1134AF00023FB607B68002B56D0BB68DA6A2D4B21
S1134B001B68DB6A9A4246D2BB689B69002B06DBB2
S1134B10284B1B68DB6A0522D21ABB689A61BB6802
S1134B205969BB68DA6A13009B009B189B00224AF0
S1134B309B18994201D1012300E00023002B22D0CD
S1134B40BB68043318001D4B98471A4B1B68DA6A7C
S1134B50BB68DA62BB68DA6A194B1B689A4203D9EC
S1134B60BB68DA6A164B1A60BB68DA6A13009B00EA
S1134B709B189B00104A9A18BB6804331900100054
S1134B80104B984704E00B4B1B68DA6ABB68DA6287
S1134B900123FB6008E0BB689A6C064B1B68DB6A68
S1134BA09A4201D20123FB60FB681800BD4604B0A1
S1134BB080BDC046983100209C310020D72E0000D3
S1134BC078320020272E000080B584B000AF7860D2
S1134BD07B68BB600023FB607B68002B44D0254BC3
S1134BE01B68BA689A4201D072B6FEE7BB68DB6CF8
S1134BF0002B01D172B6FEE7BB68DB6C5A1EBB68A2
S1134C00DA64BB68DA6ABB689B6C9A422CD0BB68D6
S1134C10DB6C002B28D1BB6804331800164B984773
S1134C20BB689A6CBB68DA62BB68DB6A0522D21A7D
S1134C30BB689A61BB68DA6A104B1B689A4203D955
S1134C40BB68DA6A0D4B1A60BB68DA6A13009B0012
S1134C509B189B000A4A9A18BB6804331900100079
S1134C60084B98470123FB60FB681800BD4604B05D
S1134C7080BDC04698310020D72E00007832002035
S1134C809C310020272E000080B586B000AF7860EC
S1134C9039607B683B610123FB607B68002B5DD03E
S1134CA03B69DB6C002B01D172B6FEE73B699A6C61
S1134CB03B689A4202D23B687B6102E03B699B6C91
S1134CC07B613B69DA6A7B699A4247D03B69DA6C5B
S1134CD0FB689A4242D1234B1B683A699A4201D13C
S1134CE072B6FEE73B69DB6ABB603B697A69DA62EC
S1134CF03B699B69002B04DB7B690522D21A3B6963
S1134D009A613B695969BA6813009B009B189B0020
S1134D10154A9B18994201D1012300E00023002B7E
S1134D201CD03B6904331800104B98473B69DA6A7E
S1134D300F4B1B689A4203D93B69DA6A0C4B1A6021
S1134D403B69DA6A13009B009B189B00064A9A1879
S1134D503B69043319001000064B9847C046BD4612
S1134D6006B080BD983100209C310020D72E000071
S1134D7078320020272E000080B500AF064B1B6858
S1134D80002B04D0044B1B68DA6C0132DA64024B4A
S1134D901B681800BD4680BD9831002080B584B0E2
S1134DA000AF786039601D4B98471D4B1B681B6D25
S1134DB0002B0ED11A4B1B685422012199543B68D5
S1134DC0002B06D03B6801211800164B9847164B60
S1134DD09847164B9847114B9847114B1B681B6D0E
S1134DE0FB60FB68002B0CD07B68002B04D00C4BC1
S1134DF01B6800221A6504E0094B1B68FA68013A33
S1134E001A65074B1B68542200219954074B984795
S1134E10FB681800BD4604B080BDC0466130000088
S1134E2098310020354F00004130000085300000EB
S1134E3080B586B000AF786039607B68002B01D103
S1134E4072B6FEE77B687B61304B984703003B6199
S1134E500F23FB187A695421525C1A707B6954221F
S1134E60022199547B691B6D5A1C7B691A650F23B7
S1134E70FB181B78012B40D17B699B6A002B01D066
S1134E8072B6FEE7224B1B68002B1DD17B690433ED
S1134E901800204B98477B69DA6A1F4B1B689A42BB
S1134EA003D97B69DA6A1C4B1A607B69DA6A1300DE
S1134EB09B009B189B00194A9A187B6904331900BC
S1134EC01000174B984707E07B6918331A00154BFD
S1134ED011001800124B98477B69DA6A124B1B6861
S1134EE0DB6A9A4209D93B68002B03D03B68012254
S1134EF01A6002E00D4B01221A603B6918000C4B4A
S1134F009847C046BD4606B080BDC046B5300000D7
S1134F1098320020D72E0000783200209C310020E7
S1134F20272E0000303200209831002084320020E7
S1134F30C130000080B584B000AF78603960214B87
S1134F401B68FB60204B1B68043318001F4B9847F9
S1134F507B6801330BD13B68002B08D01A4B1B68CC
S1134F601A1D1B4B110018001A4B984726E0FA68CB
S1134F707B68D318BB60144B1B68BA685A60BA6864
S1134F80FB689A4209D2144B1A680F4B1B6804330E
S1134F9019001000114B984710E0114B1A680A4B86
S1134FA01B680433190010000C4B98470D4B1B6809
S1134FB0BA689A4202D20B4BBA681A60C046BD4620
S1134FC004B080BD7432002098310020D72E000038
S1134FD05C320020272E00002C3200206B2E0000B3
S1134FE0283200209032002090B585B002AF002313
S1134FF07B600E4B98470E4B1B68002B0CD0822312
S11350005A000C490C480D4B0193042300930023D0
S11350100B4CA04703007B607B68002B01D172B668
S1135020FEE77B681800BD4603B090BD55550000EF
S1135030CC3200205873000069510000D0320020A7
S1135040813F000090B58BB000AFF860B9607A6022
S11350503B6000237B62FB68002B01D172B6FEE744
S11350601E4B1B68002B33D01423FB18BA681A603C
S11350701423FB187A685A601423FB18FA689A60A0
S1135080BB68052B1ADC164B98470300022B0AD188
S1135090124B1868BA6B1423F9180023114CA0475B
S11350A003007B6214E00D4B18681423F9180023E5
S11350B000220C4CA04703007B6209E0074B1868F0
S11350C03A681423F9180023074CA04703007B62B5
S11350D07B6A1800BD460BB090BDC046CC320020A0
S11350E0AD4A0000C9330000A935000090B587B06F
S11350F002AF78603960184B1B68DB68DB68FB60C3
S1135100FB6804331800154B9847FB68DB69012BD7
S113511019D1FB689A697B68D1187B683A68F8688A
S11351200F4CA047031E0ED07A68F8680023009342
S1135130002300210B4CA0470300BB60BB68002B7D
S113514001D172B6FEE7FB685B6AFA681000984703
S1135150C046BD4605B090BDC4320020D72E000025
S1135160C95200004550000080B584B000AF78609B
S11351700823FB181800064B98470300FB60BA6825
S1135180FB6811001800034B9847034B9847EFE75F
S1135190415200009D5100005153000080B584B07D
S11351A000AF786039601E4B98470823FB1818003D
S11351B01C4B98470300FB60BB68002B29D13B685C
S11351C0002B0CD17A68FB689A4208D8164B984792
S11351D0FA687B6811001800144B98471BE03B6881
S11351E0002B06D0124B1B681B685A425341DBB29A
S11351F03B60104B18687A68FB68D31A3A68190048
S11352000D4B9847084B9847031E04D10B4B984706
S113521001E0054B9847C046BD4604B080BDC0467A
S1135220F5420000815200000D430000ED500000E3
S1135230C8320020CC320020653E0000413000001E
S113524080B584B000AF78600C4B1B681B685A4271
S11352505341DBB21A007B681A607B681B68002B21
S113526005D1064B1B68DB681B68FB6001E000236B
S1135270FB60FB681800BD4604B080BDC43200204A
S113528080B584B000AF78600C4B98470300FB6096
S11352900B4B1B68FA689A4205D20A4B98477B6805
S11352A001221A6002E07B6800221A60044BFA684B
S11352B01A60FB681800BD4604B080BD414400007C
S11352C0D43200209554000080B586B000AFF86059
S11352D0B9607A603B6000237B61FB68BA685A60FE
S11352E0FB68FA681A61BA687B689A4212D87A68CD
S11352F03B68D21AFB689B699A4202D301237B6103
S11353001BE0104B1A68FB680433190010000E4BA5
S1135310984712E07A683B689A4206D2BA683B68BA
S11353209A4202D301237B6107E0084B1A68FB68A9
S1135330043319001000044B98477B691800BD46DC
S113534006B080BDC83200206B2E0000C43200209D
S113535090B58DB002AF7EE00823FB181B68002BCC
S113536010DA0823FB1804337B627B6A002B01D11B
S113537072B6FEE77B6A1A687B6A58687B6A9B6828
S1135380190090470823FB181B68002B63DB0823D4
S1135390FB189B683B623B6A5B69002B04D03B6A49
S11353A004331800334B98473B1D1800324B984781
S11353B00300FB610823FB181B68092B4AD89A00D9
S11353C02E4BD3181B689F460823FB185A683B6A68
S11353D09B69D1180823FB185B68FA69386A284C62
S11353E0A047031E37D03B6A5B6A3A6A10009847AD
S11353F03B6ADB69012B2ED10823FB185A683B6AF0
S11354009B69D218386A00230093002300211D4CA5
S1135410A0470300BB61BB69002B1CD172B6FEE739
S11354200823FB185A683B6A9A613B6A9B69002B04
S113543001D172B6FEE73B6A9A69FB69D118FB6930
S1135440FA69386A0E4CA04705E03B6A18000E4B17
S1135450984700E0C0460D4B1B680822B91800228B
S113546018000B4B9847031E00D075E7C046BD4695
S11354700BB090BDD72E000081520000687300006D
S1135480C9520000455000002D320000CC320020EB
S1135490C937000090B589B002AF3EE0284B1B68C5
S11354A0DB681B687B61264B1B68DB68DB683B6140
S11354B03B6904331800234B98473B695B6A3A699C
S11354C0100098473B69DB69012B26D13B699A6937
S11354D07B69D318FB60FA687B699A420ED93B69F1
S11354E0FA685A603B693A691A61154B1A683B6954
S11354F0043319001000144B98470EE07A69386998
S11355000023009300230021104CA0470300BB603C
S1135510BB68002B01D172B6FEE7094B1B681B6800
S1135520002BBBD1064B1B687B60094B1A68044BEC
S11355301A60074B7A681A60C046BD4607B090BD32
S1135540C4320020D72E00006B2E0000455000000E
S1135550C832002080B500AF154B9847154B1B6827
S1135560002B20D1144B1800144B9847144B1800EF
S1135570124B9847134B104A1A60134B104A1A6087
S1135580002210210520114B98470200094B1A6094
S1135590084B1B68002B06D0064B1B680C4A1100F5
S11355A018000C4B98470C4B9847C046BD4680BD2D
S11355B061300000CC3200209C320020D52D000048
S11355C0B0320020C4320020C8320020053300006D
S11355D060730000153E00008530000080B582B085
S11355E000AF78607B6880221A707B6800225A7052
S11355F07B6801229A707B680022DA70C046BD463F
S113560002B080BD80B582B000AF78607B680822AC
S11356101A707B6800225A707B6800229A707B683B
S11356200122DA707B6801221A717B6801225A71A7
S11356307B6801229A717B680022DA717B68002200
S11356401A727B6800225A727B68012252425A8184
S11356507B6800221A737B6800225A737B680022DD
S11356609A737B680022DA737B6800221A747B6861
S113567002225A747B6802229A747B680122DA74CB
S11356807B6801221A757B680C4A9A617B68012247
S11356901A777B6800225A777B6801229A777B68A5
S11356A00022DA777B682022002199547B6821222A
S11356B000219954C046BD4602B080BDFFFFFF1FC4
S11356C080B582B000AF78600A00FB1C1A70FB1C26
S11356D01B7801225340DBB2002B04D07B681B688B
S11356E0A4229B5803E07B681B68B4229B581800D3
S11356F0BD4602B080BD80B582B000AF78607B68E3
S11357001B68C4229B581800BD4602B080BD80B5FA
S113571082B000AF786039607B681B689B690222A5
S1135720134001D0052305E07B681B68D0213A684B
S11357305A5000231800BD4602B080BD80B582B027
S113574000AF78607B6800221A607B6888221204AC
S11357505A60C046BD4602B080BD80B582B000AF7D
S1135760786039607B681B687A681268516D3A68A2
S11357700A435A65C046BD4602B080BD80B582B0BA
S113578000AF78607B681B681B6D1800BD4602B0D3
S113579080BD80B582B000AF786039607B681B68DB
S11357A03A681A65C046BD4602B080BD80B582B075
S11357B000AF0200FB1D1A70064BFA1D127811008F
S11357C01F220A40012191400A001A60C046BD46CA
S11357D002B080BD00E100E080B500AF024B984705
S11357E0024B9847FEE7C0469D130000714200003B
S11357F080B582B000AF3B1D18000B4B98473B1D92
S113580006221A703B1D19001820084B98473B1DAF
S113581006221A703B1D19001920044B9847C046F4
S1135820BD4602B080BDC046DD5500000D690000D4
S113583080B58AB000AF214B98473B001800204B3D
S11358409847204B1B683A001F4918001F4B984784
S11358501C4B1B681B68C0229B589BB27B627B6AF3
S11358608022920513431A00194B1A60154B1B68CA
S11358701B68A0229B589BB27B627B6A80229205A4
S113588013431A00134B1A60134B98470F20134B02
S113589098470C4B1B68124A11001800114B98478B
S11358A0084B1B681800104B9847104B1800104BFE
S11358B09847C046BD460AB080BDC046F1570000B7
S11358C0055600000C000020001C00425905000091
S11358D08C33002070330020FD0B0000AD57000016
S11358E0010800005B570000BD0600009073000033
S11358F0B913000080B58AB000AF78600C23FB18A0
S1135900384A1A600C23FB18012252425A600C23B5
S1135910FB1800221A720C23FB181800324B98470C
S1135920324B01221A6001235B421800304B984726
S11359300300FB61FB69013304D12E4B18002E4B8D
S113594098474EE02D4B1A68FB691B01D318BB61C5
S1135950BB691B68DB00DB083B62BB691B685B003F
S1135960DB0FDBB2002B02D13B6A9B0C3B623B6A30
S11359701C4A934204D1224B18001F4B98472CE039
S1135980204B18001C4B98473B6A002118001E4B03
S113599098471E4B1B68002B1FD01D4B1800164B3D
S11359A0984700237B620FE0BA697B6AD3180833F7
S11359B01B7800211800144B9847164B18000E4B07
S11359C098477B6A01337B627B6A062BECDDBB69FB
S11359D0DB7B012118000C4B9847FB6918000E4B28
S11359E09847A0E72204000089090000E43200205F
S11359F01D0D000034740000B91300007033002042
S1135A00547400006C740000E913000008000020C6
S1135A10787400007C740000750D000080B584B0BB
S1135A2000AF2B4B1B6818002A4B98470300FB6000
S1135A3000237B60FB680122134022D0244B1B68A7
S1135A4001211800244B9847244B1B685A1C234BF4
S1135A501A601F4B1B6800211800214B9847020055
S1135A607F231340BB60BB68012B0AD11D4B1B680D
S1135A70002B06D01C4B1B683A1D110018001B4B51
S1135A809847FA6880231B01134013D0104B1A68FF
S1135A9080231B01190010000F4B9847144B1B68FF
S1135AA05A1C134B1A60134B1B683A1D1100180043
S1135AB00E4B98477B68002B06D07B68002B03D0E5
S1135AC00D4B802252051A60C046BD4604B080BD0D
S1135AD00C0000207D57000093570000D8320020AE
S1135AE0C1560000E4320020E0320020314E0000B4
S1135AF0DC3200206C33002004ED00E080B588B077
S1135B0000AF786039601C23FB1805221A803E4BD5
S1135B101B681B689B690222134002D002235B426C
S1135B206EE0394B1B681800384B98470300BB6183
S1135B30BB691F22134013D11C23FB181B881C2292
S1135B40BA18591E1180002B07D0314B1800314B65
S1135B5098470120304B9847E3E701235B424FE02D
S1135B60BB691B0C9AB21623FB181F210A401A802A
S1135B702A4B1A681623FB181B881B01D3183B6198
S1135B803B691800264B98477B689B04254A1A40BA
S1135B903B691A601E23FB1800221A8013E01E239F
S1135BA0FB181B881E22BA18128839688A181178C3
S1135BB03A69D3180A1C1A721E23FB181A881E236A
S1135BC0FB1801321A801E23FB181B88072BE6D909
S1135BD00D4B18681623FB181A883B691900124BE1
S1135BE09847094B18681623FB181B8801229A4012
S1135BF0130019000D4B98470300FB60FB685B42E0
S1135C001800BD4608B080BD0C000020F756000007
S1135C1080740000B9130000154200008C3300208A
S1135C203D5700000000FC1FF10700000F57000063
S1135C3080B586B000AF78600023FB6022E03B4B68
S1135C400822002118003A4B98477B681B0A3B61E5
S1135C503B69072B01D907233B617B68D9B2334ADF
S1135C603B69D3180A1C1A70304B324A19001000D1
S1135C70314B984703007B617B69002B08D1FB689B
S1135C800133FB607B685A1E7A60002BD7D100E099
S1135C90C0462A4B18002A4B9847FB68012118007C
S1135CA0284B98477B69002B3BD0274B1800244B8B
S1135CB098477B695B4201211800224B9847234B8C
S1135CC018001F4B9847224B1B681800214B98471C
S1135CD00300012118001B4B98471F4B1800184B59
S1135CE098471B4B1B681B689B6901211800154BC7
